:020000040800F2
:10000000080800207501000867260008652600081A
:1000100000000000000000000000000000000000E0
:10002000000000000000000000000000512E000849
:10003000000000000000000069260008532E0008A0
:100040008701000800000000870100088701000800
:100050008701000887010008870100088701000860
:1000600000000000870100088701000887010008E0
:1000700087010008870100088701000800000000D0
:100080008701000800000000000000008701000850
:1000900000000000870100088701000887010008B0
:1000A0000000000087010008000000008701000830
:1000B00087010008000000000000000000000000B0
:1000C00000F002F800F046F80CA030C808382418F8
:1000D0002D18671EA246AB4654465D46AC4201D180
:1000E00000F038F87E460F3EB6460FCC012633426C
:1000F00000D0FB1A3343A246AB4618470048000025
:1001000020480000103A02D378C878C1FAD85207C4
:1001100001D330C830C101D504680C6070470000BD
:100120000023002400250026103A01D378C1FBD813
:10013000520700D330C100D50B60704710B5752948
:1001400002D100F07DF810BD002010BD1FB51FBD0D
:1001500010B510BD00F079F91146FFF7F7FF03F075
:10016000A1FA00F091F903B4FFF7F2FF03BC00F02D
:1001700097F900000748804707480047FEE7FEE779
:10018000FEE7FEE7FEE7FEE704480549054A064BA1
:10019000704700005D2E0008C10000080802002022
:1001A0000808002008040020080400200FB41CB533
:1001B000074B06AA7B4469460090059800F019F9A0
:1001C0000020694600F028F91CBC08BC04B01847A0
:1001D00061020000F8B50E46044600202062204669
:1001E000E1688847002829D0252802D06268A168E4
:1001F00020E0E16820460027884705001ED02846F9
:100200004138192802D80127FF02203532462046FE
:1002100027602946FFF792FF002808D0012804D064
:10022000F61DF608F6000836D9E7361DD7E76268EE
:100230002846A1689047206A401CCFE7206AF8BD95
:10024000F7B5002575291068009914A611D0C0468D
:10025000C046002802DA404211A608E00099096869
:100260008A0701D50FA602E0490704D50EA601258D
:1002700001E0C046C046009F0024243704E000F09F
:10028000D0F830313955641C0028F8D12B4632465D
:100290002146009800F04FF8FEBD0000000000006D
:1002A0002D0000002B0000002000000030B5441C91
:1002B00003E00178401C00290DD08107F9D10B4BD8
:1002C000DD0104C8D11A91432940FAD0001B0A0667
:1002D00003D0C01E30BD001B30BD0A0401D0801EFB
:1002E00030BD0902FCD0401E30BD000001010101FB
:1002F00001E004C0091F0429FBD28B0701D502804D
:10030000801CC90700D00270704700290BD0C307BA
:1003100002D00270401C491E022904D3830702D573
:100320000280801C891EE3E70022EEE70022DFE75F
:10033000704770477047FFB504460D4681B02430C2
:1003400000902168880604D51022E069914321605D
:1003500000E00120A84201DD471B00E000270498CF
:10036000A1697A191018081AA0612078C00602D471
:100370002046C046C046002608E003986268A1688F
:10038000805D9047206A401C761C2062049886425B
:10039000F3DB2078C0060AD52046C046C04606E0FA
:1003A0006268A16830209047206A401C206238466D
:1003B0007F1E0028F4DC07E000986268A168405DB9
:1003C0009047206A401C206228466D1E0028F3DCFE
:1003D0002046C046C0462078000602D5022005B05F
:1003E000F0BD0120FBE7000001694A1C02610878AA
:1003F000704700B58FB00291002105910549019326
:1004000079440391114604906846FFF7E3FE0FB06C
:1004100000BD0000E5FFFFFF0A681070521C0A6073
:10042000704701468008081A02091018020A1018BD
:10043000020C1018C008820012185200891A01E03C
:10044000401C0A390A29FBD27047754600F024F88F
:10045000AE46050069465346C008C000854618B040
:1004600020B5FFF791FE60BCB64600260027C0C548
:10047000C0C5C0C5C0C5C0C5C0C5C0C5C0C5403D5C
:10048000490849008D46704710B50446C046C0462D
:100490002046FFF768FE10BD004870471800002096
:1004A00001491820ABBEFEE726000200704700009D
:1004B000F0B581B004460027009700688168C9073D
:1004C0002CD18168264B1A462F3211420AD0A06DDA
:1004D00010210143A165E06D01252843E065284610
:1004E00001B0F0BD81681940012529438160D948D8
:1004F000006800020FD5DA480068DA4903F0FEFF11
:10050000401C00900098002805D00098401E0090E4
:1005100000980028F9D1607E012803D13D46284685
:1005200001B0F0BD00F0B4FF064604E000F0B0FFFB
:10053000801B03280DD220680168C907EED18168AD
:10054000C907F3D18168064A114001220A4382603B
:10055000ECE7A06D10210143A165E06DBDE7C04649
:10056000E8FFFF7F72B6FEE770B5044600F090FF2B
:100570000619104D2868C00305D500F089FFB04268
:10058000F8D3032070BD29680B480840286003D0C9
:100590000A494860012070BD00F07AFF04192868FC
:1005A000400305D500F074FFA042F8D3032070BDCE
:1005B000002070BD10200240FAC30000E0010020BE
:1005C000F0B587B0002506955422825C012A03D13C
:1005D0000224204607B0F0BD06465436012434708C
:1005E000026893685B0717D407694B68022B1BD11D
:1005F000042007439548874256D19348C0430B686F
:10060000D9430143906A084090620024002B4FD4E4
:100610003570204607B0F0BD816D20220A43826507
:100620003570204607B0F0BD059304231F43874C67
:10063000A74248D10C68234683480340906A184378
:1006400013462833186020025369834389680140A8
:100650007F4808401843506123460024002BD7D51B
:10066000D048006803218A05014611407A4F04935F
:10067000BB427CD1744B5F1C03463B4077D1C94BD6
:1006800018689043014339431960754800687549FB
:1006900003F034FF0C214143481C069006980028C3
:1006A000B6D00698401EF8E70B680024002BAFD5A3
:1006B000BC480168694A93426DD0674A9342A7D10A
:1006C0000122920569E01F27059C27400F24009412
:1006D0000397BC40076E0194A74302970C685A4FDA
:1006E0003C4265D00494049CE407049C2F466AD1E4
:1006F0002746A4075FD47C0760D43C0761D4FC067E
:100700003C461F465FD4A30671D4630671D423060A
:1007100071D4E30571D4A30571D4049B5B0571D436
:10072000049B1B0571D4049BDB0471D4049B9B04C4
:1007300071D4049B5B0471D4049C2304009F42D4B5
:10074000E3036ED4049B9B036ED4049B5B036ED4C3
:10075000049B1B036ED4049BDB026ED4049B9B02A0
:100760006ED4049C6302DB1716271F402BE03B4B23
:10077000049F9F4200D04BE701239F05384000D0E3
:1007800046E7884B18689043014339431960357038
:10079000204607B0F0BD2C4A521C1140032292059E
:1007A00003689343591801603570204607B0F0BDC7
:1007B0006300DF0E07E03C46012704E03C460227C9
:1007C00001E03C460327039B9F40029B1F430766B3
:1007D000059B9B08C069984200D834E70198C04344
:1007E000936A0340A000000F039FB84027E7052746
:1007F000E9E70627E7E70727E5E70827E3E709270B
:10080000049CE0E70A27049CDDE70B27049CDAE759
:100810000C27049CD7E70D27049CD4E70E27049CE3
:10082000D1E71027049CCEE71127049CCBE71227C1
:10083000049CC8E71327049CC5E71427049CC2E75F
:100840001527049CBFE7C046FFFF7F00040000801F
:1008500000FFFF7F08270140000200A4000400A859
:1008600014000020400D030070B5002831D004466C
:10087000806D02210143A1652068816849072AD45F
:10088000826881680125920743D4294041D081685C
:1008900005220A40012A3FD181683D4A0A40911C45
:1008A00081600321016000F0F3FD06462068816845
:1008B000C9072ED000F0ECFD801B0328F6D3A06DF5
:1008C00010210143A165E06D01252843E065206802
:1008D00029E0012070BD8168890704D481682C4A11
:1008E0000A401032826000F0D3FD0546206881681E
:1008F0004907C5D500F0CCFD401B0328F6D3A06DF9
:1009000010210143A165E06D01252843E0652068C1
:100910000DE0A565002506E0A16D10220A43A26541
:10092000E16D2943E1658168B24A0A40826041680D
:10093000184A0A40426018490160C168174A0A40D3
:10094000C2600321890702698A4302614169072263
:1009500091434161016A124A11400162416A1140AA
:100960004162C16A1140C162816A002686623F20ED
:100970008004A5490A6882430A60204600F046F9CF
:1009800054202654E6652666A665284670BDC046F6
:10099000E8FFFF7F60F4FFFF9F0B000000021E8353
:1009A00000F000F0082701400068006C704700006C
:1009B000F0B58BB000260A96002845D00546806D1C
:1009C000002807D12C465434284600F033F9002083
:1009D0002070E86501273C072B689868C0000993E0
:1009E00015D4986883490140214399608248006882
:1009F000824903F083FD099B40000A900A98002871
:100A000005D00A98401E0A900A980028F9D1284675
:100A100058309968214207D1A96D10220A43AA656E
:100A2000E96D01263143E9659A6819460368102487
:100A300023405207D20F9A18036809D023433E4639
:100A4000036030460BB0F0BD012630460BB0F0BD60
:100A50000F220492D7433A46F33A13409A1C079068
:100A600002608A68D2070896059406971BD12A4629
:100A700020322B6B5C1EA3411B03AC682E7EB60399
:100A800026436C7EE7033743AC7E66033E43EF6844
:100A900037431F430121C8072B69002B01930290A4
:100AA00004DA834303E02F6907984FE04B0507986A
:100AB0001F43137B5B003B431678012E09D1002CAA
:100AC00000D18EE0AC6D20262643AE65EC6D0C4364
:100AD000EC656C6A002C039105D00726B601344002
:100AE0001C43AB6A23430999CC68454E26401E43FC
:100AF000CE6003239C076B681E462640EF6C37438D
:100B0000127F012A07D12A6C6E6CA96C17433743F8
:100B10000F4303990F4309990A693A4E16403E4321
:100B20000E6102998B420ED0A3420CD003998A0722
:100B3000934208D00498820407981340324C2668E8
:100B40009643F2182260089E0999019F4A6907237B
:100B500007939A436B6B1A434A614A697024A24314
:100B6000AC6B240114434C6101225405A74209D007
:100B7000002F079F16D1099EB46A06990C4331468F
:100B800028310DE0EC69A4001C341C2626401746D1
:100B9000069AB2402C6E14433A468E6A2831079F5B
:100BA0000C60089E09994C693C409C420AD1002186
:100BB000E965A96D01230B4302218B430360304695
:100BC0000BB0F0BDA86D0599084302218843A865C4
:100BD000EB6D13435C3528461646036030460BB078
:100BE000F0BD0C0423436C6A002C039100D074E721
:100BF00079E7C046E8FFFF6F14000020400D0300B6
:100C00000102DEFF02FCFF1F0827014080B50068DB
:100C10002549884200D080BD0120000504490A68AA
:100C200082430A6005200007032100F05FFA80BDBF
:100C30004010024010B58EB000240D940C940B941B
:100C40000A940994089407940694059404940394D0
:100C500000681549884201D00EB010BD07942020CD
:100C6000029002A800F08EFC002801D0FFF77AFC69
:100C7000012001050D4AD3680B43D360D3680B40B4
:100C800001930199116801431160116801400191BC
:100C90000B9403200A90099005200007019909A9E7
:100CA00000F004FB0EB010BD0024014034100240DF
:100CB000F0B581B00D4604464069082801D10827E7
:100CC00004E02068C068C00736D1042700F0E0FBCC
:100CD00006462168086838421CD001204202A36DF4
:100CE0001343A365CA681205920F3FD1A27E002A62
:100CF0003CD10A68120739D58A6852072FD4486850
:100D00000C2290434860FF200230A26D8243501CA9
:100D1000A0652BE0002D16D0681C03D1086838426E
:100D2000FCD0DAE700F0B4FB801BA8420DD82168A4
:100D300008683842F6D0D0E7A06D20210143A165B4
:100D4000012001B0F0BD00F0A3FB5420002121548C
:100D5000A06D04210143A165032001B0F0BDA26D87
:100D600020231343A365E26D0243E265227E002047
:100D7000002A01D001B0F0BD0C220A6001B0F0BD24
:100D800070B5044600688168022049070ED45421DA
:100D9000615C01290AD02546543501262E70204673
:100DA000FFF786FB002802D00021297070BDA06DDE
:100DB0000849014030020818A0650020E06521685C
:100DC0001C220A6028708A68354B13401A1D8A60FD
:100DD00070BDC046FEF0FFFFF0B581B00446542060
:100DE000205C012803D10225284601B0F0BD27462A
:100DF000543701263E7020688168490726D4009642
:100E00008268816892073DD4012529403AD08168E3
:100E100005220A40012A12D18168214A0A40911C08
:100E200081600321016000F033FB06462068806882
:100E3000C00727D000F02CFB801B0328F6D3A06D41
:100E400010210143A165E06D5C3421E081688907D0
:100E500004D48168124A0A401032826000F018FB04
:100E60000546206881684907C9D500F011FB401B81
:100E70000328F6D3A06D10210143A165E06D5C3419
:100E8000354606E0FF210231A06D88435834002525
:100E9000009E0021397030432060284601B0F0BD2B
:100EA000E8FFFF7FB0B5044600F0F2FA0546601C8B
:100EB00002D004480078041900F0EAFA401BA0426E
:100EC000FAD3B0BD04000020F0B583B005467A4CDB
:100ED0002078012802D1022003B0F0BD0291002742
:100EE0006760012020707D20C6003046FFF73CFB84
:100EF000002802D0277003B0F0BD286804280BD169
:100F00001C48801C22490A6802430A603046FFF7E9
:100F10002BFB277003B0F0BDF843029908603946F7
:100F20006F68A868C01987420191084619D2FC0071
:100F300017490868104A104020430E4A10430860C1
:100F40003046FFF711FB002808D16868A968081827
:100F500008347F1C8742EBD3019801E002990F60AF
:100F6000554C0B4B1968022291431960019F277061
:100F700003B0F0BD0200010085FFFEFF0120C007A5
:100F800003490A6802430A600868C043C00F7047FB
:100F900014200240F0B587B01746474C2278012A4A
:100FA00003D10223184607B0F0BD009301910290CF
:100FB000002005906060012525707D20C40000F0B0
:100FC00067FA0394041904952D043C4E30682842B6
:100FD00006D000F05DFAA042F8D30323364957E06B
:100FE00031463068364A1040306003D0324948609C
:100FF000049B4DE000F04CFA039944180120049042
:101000008004069030680699084204D000F040FA47
:10101000A042F7D3E1E7029801280AD170680121C4
:101020000143716001980760BFF36F8F00994160C1
:1010300014E031467068069A10437060EFF3108038
:1010400072B60599019B04CF04C34A1C3F2911467F
:10105000F9D331682942FCD180F3108800F018FAE6
:10106000039944183068284206D000F011FAA042D3
:10107000F8D30323104907E0306811490840306075
:101080000BD00D494860049B7068029A90437060D1
:1010900005980870184607B0F0BD00F0F9F90399FB
:1010A000441830680699084204D000F0F1F9A042D3
:1010B000F7D3DEE70023DDE7E00100201020024047
:1010C000FAC300000648C168002901D40020704717
:1010D0000449016004490160C068C00F7047C04600
:1010E0000820024023016745AB89EFCDF0B58DB0F4
:1010F000002900D1D8E00590D84A0520059B9342ED
:10110000059A009001D006230093000782420491C3
:101110006FD0012500240C942746039526E00A9BF6
:101120000C988340059A1068184310601C202040DA
:1011300086400998C00880001018016AB143016216
:1011400090689843906050680B9988435060D068CD
:101150009843D06004990846E840241D0C9B9B1CD2
:101160000C9308376D1C002800D19DE06E1E03987B
:10117000B04003460B40EED00B9008941820069721
:1011800038400F2707978740032409960A94A643FF
:10119000B34CA619316E02973940B54CA242019664
:1011A0000BD0B24CA242009A089C079E069F00D129
:1011B000012282409142B2D106E00222089C079EA1
:1011C000069F82409142AAD1019A6032A5490868DF
:1011D00098430860486898434860A1490868984364
:1011E0000860486898434860106802998843106016
:1011F00095E70690012400252E462F46089425E009
:10120000B240059B1868104318601C2038401546F2
:101210000B9A82400A98C008800006990818016A53
:10122000914301629868A843986058680C99884374
:101230005860D868A843D8600499099D0846E040E2
:101240000835B61C3F1D641C00282DD0621E08986E
:10125000904003460B40F1D00C901146182209959E
:101260002A400F250B95954003220A91084690438A
:101270007B490918086E07952842C1D16031794829
:101280000D460146006898430860486898434860E6
:10129000734908689843086048689843486028681C
:1012A000079988432860ABE70DB0F0BDF0B58AB070
:1012B00007900A68002A00D1CDE06848079B834266
:1012C00001D0062000E005200090012400200990B4
:1012D0000890069002942546049113E00398064373
:1012E000566004990A681046E840089B1B1D089345
:1012F000099B9B1C0993069B083306936D1C0028D1
:1013000000D1A8E0681E029F059087403A40E9D0CE
:1013100003924E6810203043122816D11C200899E1
:1013200008400F2631468140059AD2089200079B5B
:101330009A18136A8B4304992C460D693540049919
:1013400085401D43156225464E68032230461040F5
:10135000099B984001929A40079C2368934303435A
:101360002360D343122E1AD80120B0403E4A1042C7
:1013700013D0079CA0681840CA6829461D46099BDF
:101380009A402B460D4604990243A2603009059A03
:1013900090406268BA4302436260032EA2D0079C69
:1013A000E06818408A68099B9A400243E260F000B6
:1013B00098D51821069801400F208840059B019A76
:1013C0009343274AD618346E8443603605200007BD
:1013D000079B83420AD02548079B834208D02448B4
:1013E000079B8342009F04D1022702E0002700E010
:1013F00001278F40274337601A4F3E6804984168A1
:10140000C80312D5039806433E607E68880312D451
:10141000039886437E601668C80212D403988643F8
:1014200016605668880213D558E7039886433E60D5
:101430007E688803ECD5039806437E601668C80270
:10144000ECD50398064316605668880200D545E738
:101450000398864344E70AB0F0BDC046001400502C
:1014600000180240801802400600060000040050E8
:101470000008005000690840411E88417047002A5A
:1014800002D01822815070472822815070470000F6
:10149000054800687047C0461A48007802490A6843
:1014A000101808607047C0460002002080B5032075
:1014B00000F008F8002801D0012080BD00F024F8D9
:1014C000002080BD70B50F4E31780124002916D060
:1014D00005467D20C00003F011F80146DD48006894
:1014E00003F00CF800F05EFB032D08D8002806D1AD
:1014F0000024E0432946224600F024F87560204687
:1015000070BDC0460400002080B582B00C48416820
:101510000122114341604168114001910199110775
:1015200002680A43026000680840009000980820A2
:1015300000F030FB102000F02DFB02B080BDC04653
:101540003C100240002805D40322034693430C4A72
:101550009A1806E00F220240083A03239A43074BE9
:10156000D2188007C00E8901C9B28140FF23834091
:1015700010689843084310607047C0461CED00E0B7
:1015800000E400E0F0B585B0044600784006474F1F
:1015900001D4002037E0012001073A46203A0292A8
:1015A000126803910A40019208D1029B1968039ABC
:1015B00011431960196811400491049903210091A5
:1015C0000A02396811400FD0A26991420AD03968E5
:1015D00000043A6802433A603A6882433A60344809
:1015E00001403960C8074FD1386831490840A169C6
:1015F0000143396000200199002904D1029B196838
:10160000039A914319602568E90709D1A90711D404
:10161000A9061AD4690723D429062CD405B0F0BD35
:10162000394608390A6803239A43A36813430B60B9
:10163000A907EDD5032109033A46083A13688B43FD
:10164000E16819431160A906E4D5032189073A46E8
:10165000083A13688B436169194311606907DBD548
:10166000032189033A46083A13688B4321691943D9
:1016700011602906D2D55C3F3A68E0218A4361684F
:101680001143396005B0F0BDFFF702FF0646704D0B
:1016900038688007A8D4FFF7FBFE801BA842F7D963
:1016A000009801990029A9D0ADE7C0465C1002401E
:1016B000FFFCFFFFF0B583B00D46012100281BD0D1
:1016C000019102906148006807242040A84216D288
:1016D0005E490868A043284308605D4EFFF7D8FEC6
:1016E00007465A4800682040A84208D0FFF7D0FEBD
:1016F000C01BB042F5D90321084603B0F0BD029EDD
:1017000030688107844B10D5410707D57B2109023A
:101710001A688A430B210902511819600F21090226
:101720001A688A43F16811431960C0071BD1474802
:1017300000682040A84223D944490868A0432843B0
:101740000860434FFFF7A4FE06464048006820406B
:10175000A84215D0FFF79CFE801BB842F5D90321A3
:10176000084603B0F0BD0298406800282DD0032839
:1017700030D0012830D119460839096889032DE095
:10178000029B18784007644A05D5200311688143FD
:1017900018690843106010688006400F06D0116871
:1017A00038200140082909D15C483BE01046083840
:1017B00000688004410FF348C84033E011680140DD
:1017C000202927D10120C0032CE0194608390968D7
:1017D000490503E0996D00E0596D890701998BD5A2
:1017E0001968A14301431960E94FFFF751FE06460E
:1017F000494800683821014002984068C000814291
:1018000095D0FFF745FE801BB842F1D90321084669
:1018100003B0F0BD11680140182901D0002001E09B
:101820007D200002116889093C220A402649895816
:101830001F220A40D040D4490860D4480068FFF70E
:1018400041FE0146084603B0F0BDC04600200240FC
:1018500088130000140000202F4908688006400FFC
:1018600006D00A6838200240082A09D12B4816E021
:101870000846083800688004420FC248D0400EE095
:101880000A680240202A02D10120C00307E00A684A
:101890000240182A01D0002001E07D2000020A68E1
:1018A00092093C231340084AD2581F231A40D040C3
:1018B000B54A10600968890A1C220A400349895800
:1018C0001940C8407047C046F44600083447000835
:1018D000114801688906490F06D0026838210A407C
:1018E000082A08D10D487047083800688004410F65
:1018F000A448C840704702680A40202A02D101204B
:10190000C003704700680840182801D000207047C5
:101910007D2000027047C0460810024000366E016C
:10192000F0B581B00125002800D118E104460095EA
:101930000078C007924F07D0B8683821014060682E
:10194000082948D1002875D0207880071ED4207837
:1019500000070AD58A4B986838220240A169182AE4
:101960006CD10029009D00D1F9E0207800254007C6
:1019700000D4F4E0824FB86838210140A0682029E3
:1019800070D1002800D0EAE00125E8E0E1687C4F52
:10199000B8688006400F2FD0386800296FD0072123
:1019A000C9028843216901433960012001023A6874
:1019B0000A433A608602FFF76BFD054638683042FD
:1019C00000D089E0FFF764FD401B0228F6D903250B
:1019D000284601B0F0BD012256041104884207D008
:1019E00005231B0498425ED190043A6802433A6092
:1019F0003868084338605FE000291BD07F20000270
:101A00007968814360690002084378600720C0025A
:101A10003968814320690843386038688004400F82
:101A20005849C1405848016058480068FFF74AFDCE
:101A300000288CD0009D284601B0F0BD186E00290A
:101A400053D0012108431866FFF722FD06464C4893
:101A5000006E800789D4FFF71BFD801B0325022839
:101A6000F5D97CE0012805D0052850D1F86D042176
:101A70000143F965F86D01210143F96551E0012148
:101A80000A02904338608F02FFF702FD06463C4889
:101A90000068384200D15AE7FFF7FAFC801B0325A3
:101AA0000228F4D95BE03B688B433B6091043A68C1
:101AB0008A433A60002844D0FFF7EAFC05463868BC
:101AC000304200D040E7FFF7E3FC401B6428F6D922
:101AD0000325284601B0F0BD7F20000279688143CC
:101AE000606900020843786031E701218843186685
:101AF000FFF7CEFC06462248006E800700D434E78C
:101B0000FFF7C6FC801B03250228F4D927E0F96DF6
:101B100001229143F965F96D04229143F96500288A
:101B200020D01B4EFFF7B4FC0446F86D800716D496
:101B3000FFF7AEFC001BB042F7D90325284601B0E1
:101B4000F0BDFFF7A5FC07460D480068304200D104
:101B5000FAE6FFF79DFCC01B03256428F4D928464C
:101B600001B0F0BD0A4EFFF793FC0446F86D800704
:101B7000F5D5FFF78DFC001BB042F7D9DDE7C04675
:101B800000100240006CDC0214000020080000205D
:101B90008813000002490A6802430A607047C04681
:101BA00000000140401E010E01D00120704707498E
:101BB000074A5060074803680B40032189075918FA
:101BC000016000209060072111607047FFFFFF0057
:101BD00010E000E020ED00E0F0B53C22825C012A3C
:101BE00001D10220F0BD02463C323F231B02CC68EB
:101BF0009C430F239B028D689D4325434B681D4CDE
:101C00001C402C430B681C4D1D4025430B691B4C8D
:101C10001C402C434B692343194C1C400B6B194D42
:101C20001D402543CB692B438C692404164D254068
:101C30001D4303683E48834204D02C4600201070A8
:101C40005C64F0BD114805400E46203651CEC96A8D
:101C500036050F4F37402F4311256D06A8433843F3
:101C600001256D07AC4304430C43002010705C64F5
:101C7000F0BDC046FF87F0EFFF8FF0EFFF9FF0EF62
:101C8000FFBFF0EFFFFFF0EF0000FFEFFFFF0FDC03
:101C90000000F0DC70B53C22825C012A01D10220F8
:101CA00070BD02463C320223537000684568836869
:101CB000F44CA04201D02E4604E00F263605B54371
:101CC0004E682E437025AE430D6835434560A042F3
:101CD00002D0064CA04204D18024A3438968194352
:101CE0008160002010700121517070BD000400401F
:101CF00080B586B00068E349884201D006B080BD57
:101D00000C480168012211430160006810400090F6
:101D1000002004900390022002900C2001900520E6
:101D200005900007009901A9FFF7C0FA06B080BD31
:101D3000002C014034100240F0B582B03C23C35C5B
:101D4000012B02D1022002B0F0BD03463C33022435
:101D5000E241052A29D8C0467A44127952009744B4
:101D600002293F5875910268106A156A0126B54329
:101D70001562A0438E68064350680C68019495690B
:101D8000F64FBA4206D0F74CA24203D0F64CA2421C
:101D900000D0F3E00C24A643CC680427BC43EF4FEB
:101DA0003443BA4200D0ECE0F1E001200021197088
:101DB00002B0F0BD0268146A106A1025A8431062D0
:101DC0002020844388680001204356680C680194F1
:101DD0009469F14DAA4272D00746AA4279D17EE0B9
:101DE0000268146A01200502166AAE4316624002B8
:101DF000844388680002204356680C680194D569C2
:101E0000E54CA24200D189E00746A24200D091E011
:101E100096E00268156A01242003166A864316625A
:101E200050688E6801960E680096D769DA4EB24205
:101E300006D0CC4EB24203D0CB4EB24200D0AEE080
:101E4000A603B0434E69B6010643A9E00268146ACE
:101E50008E487330156A0540156257688D68019584
:101E60000D680095566DCC4DAA4206D0BD4DAA42D4
:101E700003D0BD4DAA4200D0ACE00740486905023E
:101E80003D43A8E00268156A01242005166A8643CE
:101E9000166250688E6801960E680096576DBE4EA9
:101EA000B24206D0AF4EB24203D0AF4EB24200D0E3
:101EB000ADE0A604B0434E69B6020643A8E0C027D1
:101EC000B843CF683F014025AF43F84D0743AA42CE
:101ED00005D0F348824202D0F248824208D1032062
:101EE0008002864348698D6980003043AE00064316
:101EF000104618305660664D2C40019D2D0225433A
:101F000095614C68946317620124E50296692E433B
:101F10009661A4029569A543956192E00327BF02EB
:101F2000B8435C4CFF3CCF683F022740DF4C07437F
:101F3000A24205D0DA48824202D0DA48824208D171
:101F400003200003864348698C6900013043260161
:101F5000064310461C3056604C4C2540019C2543DE
:101F6000D5614C68D4631762D46908252543D561CF
:101F7000D4690425AC43D46109697AE03446BA4295
:101F800005D0C74EB24202D0C64EB2425CD1032643
:101F90003602B0434E698F6906433E4355E006461C
:101FA00010461C3056603A4E3740009E36023E4383
:101FB000D6614E6816646603B543019E36032E4310
:101FC0001662E502D6692E43D661A402D569A543FF
:101FD000D56136E03D461046543055602B4DED1C22
:101FE0002E40009D2E4356654D68956501256D0474
:101FF000AC43019D2D0425431562546D08252543EE
:102000005565546D0425AC435465096931E00646B5
:102010001046543056601C4E3740009E36023E43F8
:1020200056654E68D6656605B543019E36052E4356
:102030001662E502566D2E435665A402556DA54302
:1020400055650969090214E00646104618305660C5
:102050000E4E3540019E354395614D6855631462BF
:10206000946908252543956194690425AC439461DE
:10207000096902680A43026000200021197002B059
:10208000F0BDC046002C0140FF8FFFFE8CFFFEFF1D
:10209000FF8CFFFEFFFBFFFFB0B5002824D00446F5
:1020A00005463C356878002804D100202870204679
:1020B00000F05EF802206870206802687B49884260
:1020C00002D0794B984211D170239A43A3681343ED
:1020D000234A90420EDD884212D0714A90420FD0BE
:1020E000704A90420CD037E00120B0BD13461C4A24
:1020F0009042F0DC6C4A904202D01C4A90422BD1B4
:1021000003221202934322691A43E368C36263689D
:102110008362A369884205D06149884202D061493F
:10212000884201D161690163016804240C430460A1
:10213000012141618024A2431A4302602973A970DE
:10214000E97029716971A971E97129726972A972BD
:10215000E97269700020B0BD1A46D6E7002C014034
:10216000FF2B014000480140004401400020004096
:1021700081B000684D49884201D001B0704701200C
:10218000C00206490A6802430A60096801400091DA
:10219000009801B07047C046002C0140401002403A
:1021A00070B502463E32002915D00C1F0223DC41D7
:1021B000032C30D8A50001A67559AF46CD210008E3
:1021C000E3210008EF2100080D220008551C2D789E
:1021D000012D0AD10FE01378012B06D102231370D1
:1021E00025E0951C2D78012D05D0012070BDD51C52
:1021F0002D78012DF9D1032C12D8C0467C442479C6
:102200006400A744010F1113537010E0151D2D78C1
:10221000012DEAD1EFE7551D2D78012DEBD0E4E734
:10222000537104E0937002E0D37000E013711F2239
:102230001140012213468B400168086A98430862E6
:10224000086A184308621548814206DC1648814234
:1022500015D01648814206D00CE01148814202D0C8
:102260001048814206D1D0034B6C03434B640F48A6
:10227000814204D0086810430860002008E08868A4
:102280000B4B03400020062B02D01404A34200D1C4
:1022900070BD0B6813430B6070BDC046FF43014027
:1022A000004801400044014000040040002C01406F
:1022B00007000100B0B58421415C012901D1022051
:1022C000B0BD024684322421516001680B680C685D
:1022D0000125AC430C606C07A3430B6000214166F1
:1022E0001170202050600846B0BD0000F0B581B0EC
:1022F0008422825C012A02D1022001B0F0BD054691
:10230000683524222A620668376832680124A243AD
:10231000326007225206B36893430B43B360406EAA
:102320000028204615D00097B768B068400F2B49A9
:10233000095C2B4A105CC00002F0E0F8044638014A
:10234000009F400F2549095C254A105CC00002F03F
:10235000D5F828806C8037600020287720212962FA
:1023600001B0F0BDF0B581B08422825C012A02D1B7
:10237000022001B0F0BD0546683524222A620668B5
:10238000376832680124A243326007225207B368DB
:1023900093430B43B360406E0028204615D000974E
:1023A000B768B068400F0D49095C0D4A105CC00069
:1023B00002F0A4F804463801009F400F0749095C69
:1023C000074A105CC00002F099F828806C803760E2
:1023D000002028772021296201B0F0BD7447000851
:1023E0006C470008B0B5002830D004460546843557
:1023F0006868002804D100202870204600F028F8E2
:1024000024206860206801680125A9430160A06A52
:10241000002802D0204600F029FD204600F0F4FDFF
:10242000012811D00920C00221684A6882434A600D
:1024300088682A22904388600868012202430A6063
:10244000204600F07DFD05462846B0BD0120B0BD08
:10245000B0B58EB000240D940C940B940A9409949A
:10246000089407940694059404940394006817490B
:10247000884201D00EB0B0BD04940125029502A897
:10248000FFF780F8002801D0FEF76CF81048C1680B
:102490000D95AA031143C160C168114001910199D2
:1024A0000168294301600068284001900C940B9456
:1024B00002200A900320400209900520000701999C
:1024C00009A9FEF7F3FE0EB0B0BDC04600380140CA
:1024D00034100240F0B585B00446882020582028EA
:1024E00036D10F460120002900D1B7E01646002A58
:1024F00000D1B3E001200203A168914205D1216916
:10250000002902D1F90700D0A8E0049325465435EC
:1025100000200290E863212068630192FEF7B8FF73
:1025200003906E802E80A0680199884227D120698F
:1025300000283B46049A44D1002845D068880028EA
:1025400022D0501C464E44D0002A58D120680DE0BD
:10255000022005B0F0BD1988314081629B1C002724
:102560006988491E6980698800290ED0C1690906F9
:1025700068D5002FEFD0397881627F1CF0E7049A8C
:10258000029B68880028DCD12068C169490606D40E
:10259000002A5ED0511C0CD1C1694906FCD520200F
:1025A0006863002005B0F0BD20680168C06940067E
:1025B000F5D4FEF76DFF0399401A04998842F3D9C8
:1025C00049E000230028B9D1074668880028B8D11F
:1025D000DAE720680AE01988314081629B1C0027F5
:1025E0006988491E698069880029CED0C1690906B9
:1025F000FCD5002FEFD0397881627F1CF0E7029381
:102600002068C169090609D4FEF742FF049A0399BC
:10261000401A904218D820680168F2E7002F03D0D2
:10262000397881627F1C06E0029B19883140816203
:102630009B1C029300276988491E698069880029CC
:10264000DFD1A2E7FEF724FF20206863032005B056
:10265000F0BDFEF71DFF20206863032005B0F0BD2C
:10266000FF010000FEE7FEE7704710B5044600F0EA
:1026700045FB204600F04CFA10BD80B500F0D0FFBD
:1026800000F04CFE80BD000010B50122D4430028AC
:1026900020D0002920D003781F4A137001291ED0B2
:1026A0004378537002291DD98378937003291CD075
:1026B000C378D37004291BD90379137105291AD063
:1026C00043795371062919D983799371072921D147
:1026D000002116E0601C10BD0F48002101700E485B
:1026E000002141700C48002181700B480021C1700D
:1026F0000948002101710848002141710648002164
:1027000081710548C17100F065FA202800D10024CC
:10271000204610BDC179F4E7F8010020F0B581B082
:10272000052004071025002620462946324600963B
:10273000FEF7A5FE272000F0F3F8702000F0F0F877
:102740000127204629463A46FEF799FE20462946AB
:102750003246FEF794FEE12000F0E2F8FF26304614
:1027600000F0DEF8204629463A46FEF788FE20466D
:102770002946009AFEF783FEE22000F0D1F83046A9
:1027800000F0CEF8204629463A46FEF778FE01B022
:10279000F0BD0000F0B58FB0BB48016801252943AA
:1027A00001600068284008950A900A9800240C945B
:1027B0000B94802009900A90052006070AA930464C
:1027C000FEF774FD2027304639462246FEF757FEB5
:1027D000304639462A46FEF752FE3046099D2946C4
:1027E000FEF748FE0690304639462246FEF747FE81
:1027F00030463946089AFEF742FE30462946FEF733
:1028000039FE0590304639462246FEF738FE3046FE
:102810003946089D2A46FEF732FE30460999FEF7F2
:1028200029FE0490304639462246FEF728FE3046FF
:1028300039462A46FEF723FE3046099D2946FEF713
:1028400019FE03903046394622460794FEF717FEDC
:1028500030463946089AFEF712FE30462946FEF702
:1028600009FE0290304639462246FEF708FE304601
:102870003946089D2A46FEF702FE3046099C21464D
:10288000FEF7F8FD019030463946079AFEF7F7FD4E
:10289000304639462A46FEF7F2FD30462146FEF71D
:1028A000E9FD009030463946079C2246FEF7E7FDD9
:1028B000304639462A46FEF7E2FD30460999FEF7D2
:1028C000D9FD0546304639462246FEF7D8FD059922
:1028D000481E81410A460699481E814148008018D9
:1028E0008000049A511E8A4151004018039A511EDB
:1028F0008A4180188000029A511E8A415100401876
:10290000019A511E8A4180188000009A511E8A4106
:1029100051004018691E8D414019C0B20FB0F0BD82
:10292000F0B589B00446019057480168012203922E
:102930001143016000681040049004980220079041
:102940000025069505928020009004900520070739
:1029500004A93846FEF7AAFC2026384631460295DF
:102960002A46FEF78CFDE2093846009C2146FEF718
:1029700086FD38463146039AFEF781FD38463146DA
:102980002A46FEF77CFD019D6806C20F38462146A7
:10299000FEF775FD38463146039AFEF770FD38465E
:1029A0003146029C2246FEF76AFDA806C20F384651
:1029B000009D2946FEF763FD38463146039AFEF72F
:1029C0005EFD384631462246FEF759FD019CE00681
:1029D000C20F38462946FEF752FD38463146039A63
:1029E000FEF74DFD38463146029D2A46FEF747FD6B
:1029F0002007C20F3846009C2146FEF740FD3846AE
:102A00003146039AFEF73BFD384631462A46FEF72B
:102A100036FD019D6807C20F38462146FEF72FFD9F
:102A200038463146039C2246FEF729FD384631469A
:102A3000029AFEF724FDA807C20F3846009D2946DA
:102A4000FEF71DFD384631462246FEF718FD384692
:102A50003146029AFEF713FD019A22403846294674
:102A6000FEF70DFD384631462246FEF708FD384692
:102A700029462246FEF703FD38463146029AFEF704
:102A8000FEFC09B0F0BDC04634100240F0B581B084
:102A900006460520040710250022009220462946FC
:102AA000FEF7EDFC3020FFF73BFF3078FFF738FFF3
:102AB0007078FFF735FFB078FFF732FFF078FFF757
:102AC0002FFF3079FFF72CFF0127204629463A4691
:102AD000FEF7D5FC20462946009AFEF7D0FC2A20B6
:102AE000FFF71EFF3078FFF71BFF7078FFF718FF26
:102AF000B078FFF715FFF078FFF712FF3079FFF796
:102B00000FFF204629463A46FEF7B9FC01B0F0BD5A
:102B1000F0B583B000900520040710250022029232
:102B200020462946FEF7ABFC01263046FFF7F8FEAB
:102B3000FFF730FE0746204629463246FEF79FFC47
:102B400020462946029AFEF79AFC21200190FFF7C1
:102B5000E7FEBF2007403846FFF7E2FE2046294641
:102B60003246FEF78CFC20462946029F3A46FEF785
:102B700086FC2520FFF7D4FE00986030C0B2FFF736
:102B8000CFFE204629463246FEF779FC20462946EC
:102B90003A46FEF774FC3046FFF7C2FEFFF7FAFD37
:102BA0000746204629463246FEF769FC204629465C
:102BB000029AFEF764FC0198FFF7B2FE402007433B
:102BC0003846FFF7ADFE204629463246FEF757FC51
:102BD00003B0F0BDF0B583B00746FFF79FFD0520B9
:102BE000040710260025204631462A46FEF747FCFA
:102BF000A020FFF795FE3878FFF792FE7878FFF770
:102C00008FFEB878FFF78CFEF878FFF789FE3879E9
:102C1000FFF786FE7879FFF783FEB879FFF780FE2D
:102C2000F879FFF77DFE0127204631463A46FEF748
:102C300026FC204631462A46FEF721FC2020FFF7DD
:102C40006FFEEF20FFF76CFE204631463A46FEF756
:102C500016FC642001E001060ED001A90D70401E93
:102C600009783129F7D800BF0199491C01AA1170D0
:102C700011783229F7D3EEE710270026204639468F
:102C80003246FEF7FCFB20252846FFF749FEEE20E2
:102C9000FFF746FE012220463946FEF7F0FB64208E
:102CA00002E0401E010612D0C82101E00A06F8D059
:102CB00002AA1670491E1278312AF7D800BF029A6C
:102CC000521C02AB1A701A78322AF7D3EEE710269C
:102CD000002220463146FEF7D2FB0720FFF720FEF8
:102CE000FFF758FD0746012220463146FEF7C7FB95
:102CF0002F40FFF713FD384603B0F0BD70B582B02A
:102D00000520050710260024284631462246FEF7F6
:102D1000B6FB2020FFF704FEEE20FFF701FE802027
:102D2000FFF7FEFD012228463146FEF7A8FBFFF71C
:102D3000F5FCC82001E001060ED001A90C70401E70
:102D400009783129F7D800BF0199491C01AA1170EF
:102D500011783229F7D3EEE702B070BDF0B587B035
:102D600004460026039602960196354D2846FEF746
:102D700033F82846FDF778FD3C202E542C202E54A5
:102D800020202E54EE642E636E636E62AE620127C5
:102D9000EF61AE762E830420F90703229207294BB8
:102DA0002B606A60AE60EE602961686106960596E8
:102DB00004962846FDF7FCFD002801D072B6FEE718
:102DC000059704971E4804A9FDF7FAFB002801D0D7
:102DD00072B6FEE71C480490194804A9FDF7F0FB01
:102DE000002801D072B6FEE70220039002960194FB
:102DF000134D01A92846FDF7E3FB144C00281CD114
:102E00000220FEF74FF828681E2101602846FDF7D2
:102E1000B7FF002811D10A486421FDF749FF0028B7
:102E200003D00748FDF7D8FF07E0054D2846FDF71A
:102E3000BBFD04462846FDF7CFFF204607B0F0BD96
:102E4000E80000200024014002000004FFFF000011
:102E5000704780B5FEF720FB80BD00000120C00652
:102E6000014908607047C04608ED00E0B0B5816ACE
:102E70000A070CD4CA0714D18A071CD44A0724D4E1
:102E8000CA062CD48A0634D44A063CD44CE001222B
:102E9000D20303685C689443826B22435A60CA077A
:102EA000EAD00122520403685C689443C26A224358
:102EB0005A608A07E2D50122120403685C689443D1
:102EC000026B22435A604A07DAD501229204036852
:102ED0005C689443426B22435A60CA06D2D50122F1
:102EE000120303689C689443C26B22439A608A066B
:102EF000CAD50122520303689C689443026C2243A2
:102F00009A604A0610D501221305026854689C4352
:102F1000456C2C4354609D4206D103235B055468E5
:102F20009C43836C23435360090607D50121C904E0
:102F3000026853688B43C06C18435060B0BD0000FA
:102F4000F0B583B0044690200026265027468437EB
:102F5000FEF79EFA03462068016809071FD5294835
:102F60000090012002904105002220461D4600F0FD
:102F700013F9002811D0EFF31080029981F3108823
:102F800021680A6880239A430A6080F31088202011
:102F9000786003203E7003B0F0BD20682B460068C7
:102FA000400725D5174800900125A9050022204695
:102FB00000F0F2F800281BD0EFF3108085F31088A2
:102FC00009214901226813688B43136080F310883C
:102FD000EFF3108085F3108821688A68AA438A601D
:102FE00080F310882020B86003203E7003B0F0BD4D
:102FF00020207860B860E666266730463E7003B0F1
:10300000F0BDC046FFFFFF01F0B581B00446006887
:103010000168544A0A40A16823690B4365691D434E
:10302000E1690D431543056003221203436893438E
:10303000E2681A434260A269236A134382684A4DD8
:1030400015401D438560C26A0F239A43676A3A435D
:10305000C262464A904209D0454A904208D145484A
:10306000406D8007000F44A2125802E0002200E0E9
:103070001022264668360125E803814211D1082A2C
:1030800000D966E07A4412795200974404621C62C7
:103090003C6262622400FEF7DFFB002837D0676ADB
:1030A00019E0082A55D8C0467A441279520097444C
:1030B000045030504B5050503800FEF7CDFB0028E4
:1030C00046D0676A2DE02B4800680006400F411C7F
:1030D0002D4801F013FA79002C4A515A01F00EFAEA
:1030E000400061684A08101801F008FA0246103AD8
:1030F00027498A422DD201400007400F084321682A
:10310000C860002525E0FEF7E3FB0028C7D10025B5
:103110001FE0184800680006400F411C1A4801F0E3
:10312000EDF97900194A515A01F0E8F961684A0845
:10313000101801F0E3F901461039154A914208D2FE
:103140002168C860002504E0FEF7C2FB0028B8D162
:1031500000251048306000206067A067284601B055
:10316000F0BDC046F369FFCFFFF4FF1100440040FB
:103170000038014000100240000000000400000080
:103180000200000008000000006CDC025447000848
:10319000F0FF000001000100F0B587B01D461646A3
:1031A0000F460368D9693940C91B4A424A41002188
:1031B000B2420FD10C9C002C0FD00591611C11D193
:1031C000D9693940C91B4A424A41B242F8D00598F0
:1031D00007B0F0BD084607B0F0BDFEF759F903206F
:1031E00007B0F0BD01468431029101210191C9026D
:1031F00004910690039506E0C9693940CA1B514203
:103200005141B142E3D1FEF743F9411B0323A142EF
:1032100048D8069801680A685207EDD5402FEBD0D0
:10322000802FE9D0CA6912073FD4CA69049D2A4297
:10323000039DE1D01E4604980862EFF3108201213D
:1032400081F3108809235B010698046825689D4373
:10325000256082F31088EFF3108281F310880698BE
:1032600003689C682C4D25409D60069882F3108869
:10327000C26E012A0BD1EFF3108281F3108801682E
:103280000B681024A3430B60069882F3108820215A
:10329000029B99600022C26642671A70D96030466C
:1032A00007B0F0BD184607B0F0BD08250D62EFF37A
:1032B0001081019880F3108809225201069B1B6837
:1032C0001C6894431C6081F31088EFF3108180F335
:1032D0001088069A126893680F4C1C40069B9460F5
:1032E00081F31088D96E01290CD1EFF310810122EE
:1032F00082F310881A6813681024A3431360069B96
:1033000081F310882021029A91600021D9665967C3
:103310001170D56007B0F0BDFEFFFFEFF0B587B0CC
:103320000520040710260025204631462A46FEF7D0
:10333000A6F82020FFF7F4FA0220FFF7F1FA0122A5
:1033400020463146FEF79BF8C82001E001060ED06A
:1033500003A90D70401E09783129F7D800BF0399E1
:10336000491C03AA117011783229F7D3EEE7C8205F
:1033700001E001060ED003A90D70401E0978312925
:10338000F7D800BF0399491C03AA1170117832299C
:10339000F7D3EEE710260025204631462A46FEF7F1
:1033A0006EF82020FFF7BCFA3E20FFF7B9FA0122A1
:1033B00020463146FEF763F8C82001E001060ED032
:1033C00004A90D70401E09783129F7D800BF04996F
:1033D000491C04AA117011783229F7D3EEE7C820EE
:1033E00001E001060ED004A90D70401E09783129B4
:1033F000F7D800BF0499491C04AA1170117832292A
:10340000F7D3EEE710260025204631462A46FEF780
:1034100036F80F20FFF784FAFFF7BCF9FFF7BAF987
:10342000FFF7B8F9FFF7B6F9FFF7B4F90122204624
:103430003146FEF724F8C82001E001060ED005A9A8
:103440000D70401E09783129F7D800BF0599491C35
:1034500005AA117011783229F7D3EEE7102600255E
:10346000204631462A46FEF70AF82F20FFF758FA81
:103470004420FFF755FA3E20FFF752FA3820FFF7B5
:103480004FFA3220FFF74CFA2A20FFF749FA0122BF
:1034900020463146FDF7F3FFC82001E001060ED0BB
:1034A00006A90D70401E09783129F7D800BF06998A
:1034B000491C06AA117011783229F7D3EEE71025BE
:1034C0000027204629463A46FDF7D9FF2320FFF77B
:1034D00027FAAF20FFF724FA012620462946324674
:1034E000FDF7CDFF4D48FFF7D1FA204629463A4671
:1034F000FDF7C5FF26200290FFF712FA0220FFF722
:103500000FFA204629463246FDF7B9FF20462946E4
:103510003A46FDF7B4FF2220FFF702FA3046FFF7E4
:10352000FFF9204629463246FDF7A9FF20462946E5
:103530003A46FDF7A4FF3120FFF7F2F90820FFF724
:10354000EFF9204629463246FDF799FF20462946E5
:103550003A46FDF794FF2120FFF7E2F93846FFF7DE
:10356000DFF9204629463246FDF789FF20462946E5
:103570003A46FDF784FF3C20FFF7D2F93846FFF7C3
:10358000CFF9204629463246FDF779FF20462946E5
:103590003A46FDF774FF3D20FFF7C2F91820FFF708
:1035A000BFF9204629463246FDF769FF20462946E5
:1035B0003A46FDF764FF24200190FFF7B1F933206C
:1035C000FFF7AEF9204629463246FDF758FF204660
:1035D00029463A46FDF753FF0620FFF7A1F9FFF70A
:1035E000D9F80090FFF7D6F8204629463246FDF775
:1035F00046FF204629463A46FDF741FF0298FFF76D
:103600008FF90098FFF78CF90198FFF789F92046A8
:1036100029463246FDF733FF07B0F0BD0C0000200D
:10362000F0B587B0E84801680124214301600168D2
:103630002140029102990168214301600168214003
:1036400002910299016821430160006820400290C4
:10365000029802200590002001900490039480209D
:1036600002900520060702AD30462946FDF71EFEF2
:1036700020200090029030462946FDF717FE1027C3
:10368000029730462946FDF711FE3046394622465C
:10369000FDF7F5FE30460099019AFDF7F0FE07B000
:1036A000F0BDC04600B59FB0FDF700FF00250E95A8
:1036B0000D950C950B950A951995189517951695D6
:1036C0001595BF4801680724A1430160BD48401C0F
:1036D00009900126089608A8FEF722F9002801D0D3
:1036E00072B6FEE71995189517951696159415A8B4
:1036F0002946FDF7DFFF002801D072B6FEE70C95E2
:103700000B95B148016802221143016001680292E1
:103710001140159115990168042207921143016027
:1037200001681140159115990168314301600068E5
:103730003040159015980520000706901F210901BB
:103740002A46FDF79CFEA148402421462A46FDF763
:1037500096FE0A96099580200590089008AF9B4830
:103760003946FDF7A3FD0B950A950996E1200490D3
:10377000400003902E30089006983946FDF796FDDC
:103780000B950A950996089490483946079FFDF7CE
:103790008DFD3C218E4845542C214554202405554F
:1037A000C5640563456345628562C66185760583A8
:1037B000F10703229207874B036042608560C56072
:1037C000016147610A9509950895FDF7F1F8002810
:1037D00001D072B6FEE7099608967D4808A9FCF765
:1037E000EFFE002801D072B6FEE77B4808907848CB
:1037F00008A9FCF7E5FE002801D072B6FEE70694A2
:103800001B951A951995189517951695159508A84D
:103810003421FCF78BFD714C714872496162A562DD
:10382000E56220636563A5630598E0632434204660
:10383000FEF732FC002801D072B6FEE71E951D95FA
:103840001C951CA92046FEF725FA002801D072B667
:10385000FEE71B951A9519971895179573201690E2
:103860006020159015A908222046FEF765FA002869
:1038700001D072B6FEE71995169515A90C272046BA
:103880003A46FEF759FA002801D072B6FEE70C95C9
:103890000B950A9509950895149513951295109511
:1038A0000F950E957006119070030D9008A9204693
:1038B000FEF792F9002801D072B6FEE70794204681
:1038C000FEF716FA484804994902484A02604160E6
:1038D0008560C560056147618561C56105624562B6
:1038E0008562FEF77FFD002801D072B6FEE73E48F4
:1038F0000021FEF737FD002801D072B6FEE73A48F6
:1039000000210491FEF7F2FC002801D072B6FEE718
:103910003548FEF7CFFC002801D072B6FEE73448E8
:103920000188344C002907D026488142204604D023
:1039300088023149401800E020460378D12B1FD17E
:103940004178A5291CD18578012D19D10279002A49
:1039500016D01746C2780592002A11D0C2795A2A89
:103960000ED159406940059A5140794042794A4008
:103970008079904204D1214847700599017069E02F
:103980001E482A254570057000201590FDF79AFB0A
:1039900002980890164801880F20002904D0094A8F
:1039A000914201D04808401E0A96099008A815A91E
:1039B000FDF78AFA002823D0FDF7E0FA4AE0C04676
:1039C00000200240FFFF00003410024000040050BD
:1039D000E8000020002401400200000478000020DC
:1039E000AF040000002C01404C01002000380140D1
:1039F000A075FF1F0078000800F8FF0700000020F6
:103A00000248008800280FD002E0C046A075FF1FC2
:103A10000149884208D001E0FFFF0000800201490F
:103A2000441801E000F8FF070120054A054B214634
:103A3000FDF7B0FA0646FDF7A1FA002E0AD103E021
:103A4000D1A5012A2A00755A01484570057001E088
:103A500000000020844F85491C22642638463346E6
:103A6000FEF738FD82490C22029238463346FEF7B3
:103A700031FD804C227808AD7F492846FCF796FB43
:103A80002846FCF713FC82B2384629463346FEF737
:103A900021FD7A490822019238463346FEF71AFD85
:103AA000627828467449FCF781FB2846FCF7FEFB48
:103AB00082B2384629463346FEF70CFD7049022291
:103AC000059238463346FEF705FD3046FDF7EAF924
:103AD000079C20460199FEF763FB2046029F39466A
:103AE000FEF75EFB674C606A0499C1630164664936
:103AF0005D483C463A463346FEF7ECFCFEF7BDFD1A
:103B00006249594F384622463346FEF7E3FC604986
:103B1000112238463346FEF7DDFC4C20FEF7A5FDAA
:103B20005C490A22079238463346FEF7D3FC5AA175
:103B3000132238463346FEF7CDFC28464E49039CF7
:103B40002246FCF733FB2846FCF7B0FB82B238462E
:103B500029463346FEF7BEFC54A13846029A334646
:103B6000FEF7B8FC284644492246FCF71FFB2846CE
:103B7000FCF79CFB82B2384629463346FEF7AAFC86
:103B80004EA13846059A3346FEF7A4FC3234284647
:103B900039492246FCF70AFB2846FCF787FB82B22C
:103BA000384629463346FEF795FC45A1042238469F
:103BB0003346FEF78FFCFDF76BFC324804994160F9
:103BC0000170FDF765FCFDF763FC01200390FFF732
:103BD000C5F804463C48FFF7C1F802903BA13846BF
:103BE000079A3346FEF776FCA2B22846224C2146BD
:103BF000FCF7DCFA2846FCF759FB82B23846294626
:103C00003346FEF767FC34A1052238463346FEF7FB
:103C100061FC029882B228462146FCF7C7FA284682
:103C2000FCF744FB82B2384629463346FEF752FC85
:103C300038461349059A3346FEF74CFC28A12F223B
:103C400038463346FEF746FC31A12122384605921C
:103C50003346FEF73FFC0398FFF780F804463548EB
:103C6000844269D1A6E0C0464C0100204A480008C1
:103C7000C148000800000020F94800089F480008DB
:103C800084480008780000209D4700080448000888
:103C90008B4700087C4800085B53594E435D205415
:103CA0005820666978656420617420006D732C204B
:103CB00057696E646F773A20000000002D200000E5
:103CC0006D730D0A00000000020000045B414443D4
:103CD0005D206368303D0000206368313D000000D6
:103CE0005B4144432D544553545D205374617274B9
:103CF000696E67206368616E6E656C2073776974A6
:103D00006368696E6720746573742E2E2E0D0A0029
:103D10005B4144432D544553545D205265616469B1
:103D20006E672043483020332074696D65733A0D07
:103D30000A000000FFFF0000194F1A4906226426FE
:103D400038463346FEF7C6FB08AD17490022284621
:103D5000FCF72CFA2846FCF7A9FA82B23846294625
:103D60003346FEF7B7FB1149022238461746334661
:103D7000FEF7B0FBA2B228460B49FCF717FA28461B
:103D8000FCF794FA82B2064C204629463346FEF7E9
:103D9000A1FB074920463A463346FEF79BFB09E064
:103DA0004C010020EA480008F94800089C48000837
:103DB000844800086420FDF775F80120FEF7CEFF67
:103DC0000446F948844232D0F84FF9490622642665
:103DD00038463346FEF77EFB08ADF64901222846F9
:103DE000FCF7E4F92846FCF761FA82B23846294626
:103DF0003346FEF76FFBF04902223846174633463A
:103E0000FEF768FBA2B22846EA49FCF7CFF928463C
:103E1000FCF74CFA82B2E54C204629463346FEF7C1
:103E200059FBE64920463A463346FEF753FB6420E9
:103E3000FDF738F80120FEF791FF0546DA48854284
:103E400031D0DA48DA49062264263346FEF742FBCF
:103E500008ACD849022720463A46FCF7A7F9204685
:103E6000FCF724FA82B2D14821463346FEF732FBF2
:103E7000D149CE483A463346FEF72CFBAAB220463B
:103E8000CC49FCF793F92046FCF710FA82B2C74DF3
:103E9000284621463346FEF71DFBC84928463A46C8
:103EA0003346FEF717FB64242046FCF7FBFFBF48B0
:103EB000C3492F222346FEF70DFBC24C2046FCF7D8
:103EC0008BFF20681E2101602046FCF759FF002867
:103ED00009D1BC486421FCF7EBFE002800D188E240
:103EE000B848FCF779FFB148B7491C226423FEF7B4
:103EF000F1FAAE48B54929226423FEF7EBFA012016
:103F0000FEF72CFF054632242046FCF7CBFFB048D5
:103F1000FEF724FF07462046FCF7C4FFA24807959A
:103F2000854249D0A048874246D0A04CA9490722E3
:103F30000392642620463346FEF7CCFA08AD9D492D
:103F400000222846FCF732F92846FCF7AFF982B286
:103F5000204629463346FEF7BDFA9F492046039A7C
:103F60003346FEF7B7FA079882B228469149FCF724
:103F70001DF92846FCF79AF982B2204629463346B5
:103F8000FEF7A8FA9549052220463346FEF7A2FA25
:103F9000BAB228468749FCF709F92846FCF786F9A2
:103FA00082B2204629463346FEF794FA834902221C
:103FB00020463346FEF78EFA0120FEF7CFFE054677
:103FC00032242046FCF76EFF8148FEF7C7FE074605
:103FD0002046FCF767FF74480795854249D0724830
:103FE000874246D0714C7B490722039264262046C3
:103FF0003346FEF76FFA08AD6E4901222846FCF7FA
:10400000D5F82846FCF752F982B2204629463346B5
:10401000FEF760FA70492046039A3346FEF75AFAD3
:10402000079882B228466349FCF7C0F82846FCF797
:104030003DF982B2204629463346FEF74BFA6749DE
:10404000052220463346FEF745FABAB228465949BA
:10405000FCF7ACF82846FCF729F982B2204629463D
:104060003346FEF737FA5549022220463346FEF71B
:1040700031FA01200390FEF771FE054632242046F6
:10408000FCF710FF5248FEF769FE07462046FCF792
:1040900009FF4548079585424AD04348874247D0A3
:1040A000424C4C4907220192642620463346FEF7D3
:1040B00011FA08AD3F49022202922846FCF776F831
:1040C0002846FCF7F3F882B2204629463346FEF72D
:1040D00001FA41492046019A3346FEF7FBF9079859
:1040E00082B22846F449FCF761F82846FCF7DEF86E
:1040F00082B2204629463346FEF7ECF9F149052203
:1041000020463346FEF7E6F9BAB22846EA49FCF7FC
:104110004DF82846FCF7CAF882B2204629463346B5
:10412000FEF7D8F9E5492046029A3346FEF7D2F960
:10413000DF48E7491B226423FEF7CCF9D94DDB4E5B
:10414000069CFDF7A5F90246B068101AC82854D39A
:1041500023205A213154B0783055D64B1978174660
:10416000059AB15472789B781C46544044404C40A8
:10417000A521614022243155B760D649B183F27739
:10418000B377401CB07030461C300821FEF77CFA33
:10419000002825D07069401C706114226423C44833
:1041A000CD49FEF797F926E0FFFF00004C01002003
:1041B000EA480008F94800089C48000884480008BC
:1041C000AA470008E800002011480008DA47000864
:1041D00002000004F14800088E48000896480008D4
:1041E0003069401C30614021012428462246FDF7F9
:1041F00046F977603470069C3A46F06800287DD016
:10420000101A00097D287AD3F260AA488078401CF1
:10421000C1B20729039900D801460792A5488170C9
:104220007078401CC1B20229049900D8014671700F
:104230000A2264259E480746A8492B46FEF74AF9FC
:104240009C48827808AE30469B490C46FBF7AEFF8F
:104250003046FCF72BF882B2384631462B46FEF743
:1042600039F9082238469E492B46FEF733F98F4824
:10427000427830462146FBF799FF3046FCF716F8A6
:1042800082B2384631462B46FEF724F905243846DB
:10429000944922462B46FEF71DF984488078401E3B
:1042A000C2B230468449FBF781FF3046FBF7FEFF80
:1042B00082B2384631462B46FEF70CF938468A4919
:1042C00022462B46FEF706F97A48027830467A49AC
:1042D000FBF76CFF3046FBF7E9FF82B23846314608
:1042E000724E2B46FEF7F6F80E2238467F492B46D3
:1042F000FEF7F0F86B4D069C079A00E0F26030780C
:1043000001280DD17068101A642809D340210024B7
:10431000284617462246FDF7B2F83A463470069C06
:10432000B069101A7249884200D20AE7B2610D22C0
:1043300064255F4F38466F492B46FEF7CBF8328A2B
:1043400008AE30465C490C46FBF730FF3046FBF7C1
:10435000ADFF82B2384631462B46FEF7BBF8062247
:10436000384665492B46FEF7B5F85048828A3046F4
:104370002146FBF71BFF3046FBF798FF82B2384619
:1043800031462B46FEF7A6F8052438465549224605
:104390002B46FEF79FF84548827830464649FBF7A2
:1043A00005FF3046FBF782FF82B2384631462B4686
:1043B000FEF790F838464C492246069C2B46FEF7FD
:1043C00089F83C48027830463B49FBF7EFFE30461F
:1043D000FBF76CFF82B238463146344E2B46FEF76F
:1043E00079F80222384635492B462E4DFEF772F8F1
:1043F000A7E62D4C2046FCF7D7FA05460390204649
:10440000FCF7D2FA06462046FCF7E6FC284F2C497A
:1044100006220792642438462346FEF75BF8AAB2C8
:1044200008AD25492846FBF7C1FE2846FBF73EFFAD
:1044300082B2384629462346FEF74CF82149052228
:1044400038462346FEF746F8B2B228461A49FBF72B
:10445000ADFE2846FBF72AFF82B23846294623469E
:10446000FEF738F818A13846079A2346FEF732F8C7
:1044700003990846B14201D9801B00E0301A82B28C
:1044800008AC0D492046FBF791FE2046FBF70EFFD6
:1044900082B2074864232146FEF71CF80448074906
:1044A000022223E500040050E800002078000020EC
:1044B0004C01002000000020F94800088448000852
:1044C000874800089648000820446966663D000059
:1044D0002E480008AA55000067480008A8480008B0
:1044E000DB480008D5480008E44800087C4700087D
:1044F000B80B0000B3480008CE48000843088B42C0
:104500001AD3002203098B4279D3030A8B425ED36C
:10451000030B8B4242D3030C8B4227D30902FF22A9
:1045200012BA030C8B4202D31212090203D0030BFE
:104530008B4233D31AE0D3E0411A8041401C7047CC
:1045400003460B4371D443088B42F5D30022030981
:104550008B4254D3030A8B4239D3030B8B421DD3B6
:10456000030C8B4202D394466EE0090AC30B8B42C4
:1045700001D3CB03C01A5241830B8B4201D38B036F
:10458000C01A5241430B8B4201D34B03C01A524114
:10459000030B8B4201D30B03C01A5241C30A8B4257
:1045A00001D3CB02C01A5241830A8B4201D38B0242
:1045B000C01A5241430A8B4201D34B02C01A5241E6
:1045C000030A8B4201D30B02C01A5241CDD2C30958
:1045D0008B4201D3CB01C01A524183098B4201D3D4
:1045E0008B01C01A524143098B4201D34B01C01ABF
:1045F000524103098B4201D30B01C01A5241C30837
:104600008B4201D3CB00C01A524183088B4201D3A5
:104610008B00C01A524143088B4201D34B00C01A91
:104620005241411A524110007047CA0F00D049420E
:10463000031000D34042534000229C4603098B42A2
:104640002DD3030A8B4212D38901FC2212BA030A2A
:104650008B420CD3890192118B4208D389019211AC
:104660008B4204D3890137D0921100E08909C30934
:104670008B4201D3CB01C01A524183098B4201D333
:104680008B01C01A524143098B4201D34B01C01A1E
:10469000524103098B4201D30B01C01A5241C30896
:1046A0008B4201D3CB00C01A524183088B4201D305
:1046B0008B00C01A5241D9D243088B4201D34B0020
:1046C000C01A5241411A00D2014652411046634677
:1046D0005B1000D34042704763465B1000D34042FA
:1046E00001B50021004201D0C9430846C046C0467A
:1046F00002BD0000000000000000000000000000FB
:1047000000000000000000000000000000000000A9
:104710000000000001000000020000000300000093
:104720000400000006000000070000000800000070
:104730000900000000000000000000000000000070
:104740000000000001000000020000000300000063
:1047500004000000010002000400060008000A0036
:104760000C00100020004000800000010101010346
:104770000701000008040204080101012028333069
:104780002F37302F313030290D0A00524620436F29
:104790006E6669672054582E2E2E0D0A0052462050
:1047A000496E69742E2E2E0D0A005B4144432D5430
:1047B0004553545D2052656164696E67206475617C
:1047C0006C206368616E6E656C7320287363616E24
:1047D000206D6F6465293A0D0A005B4144432D54F6
:1047E0004553545D20416C7465726E6174696E67E7
:1047F000204348302F43483120332074696D65735E
:104800003A0D0A00524620496E6974204F4B0D0A3A
:104810000020204475616C206368616E6E656C20B9
:1048200072656164206661696C65640D0A005B41B4
:1048300044432D544553545D205465737420636F75
:104840006D706C657465640D0A005B46575D20767B
:10485000322E382E332D44657669636549642D46C2
:104860006C6173680D0A005B54582D4552525D20EF
:1048700073656E64206661696C0D0A0052462052B1
:10488000656164790D0A0020204348303D005D3A9F
:10489000204348303D00204348313D005D3D00202D
:1048A0007061697265643D005B54585D206D6F6492
:1048B000653D005B54582D535441545D206F6B3D52
:1048C000005B4445565D206C6F63616C3D00206663
:1048D00061696C3D00207365713D002062726967FB
:1048E00068743D00206465763D0020204348305BBD
:1048F000002020497465725B00257500204900087E
:1049000000000020180000000401000838490008D9
:1049100018000020F007000020010008000000003F
:104920002A2A01000100000004000000CCCCCCCCFD
:08493000CC000000001BB700E1
:04000005080000C12E
:00000001FF
